:100000000C9462000C94C3040C949C040C948A001D
:100010000C948A000C948A000C948A000C948A0038
:100020000C948A000C948A000C948A000C948A0028
:100030000C948A000C948A000C948A000C948A0018
:100040000C9452040C948A000C9420040C94FA032F
:100050000C948A000C948A000C948A000C948A00F8
:100060000C948A000C948A000000000024002700F1
:100070002A0000000000250028002B0000000008D6
:10008000000201000003040700000000000000005F
:1000900000000000230026002900040404040404D6
:1000A0000404020202020202030303030303010227
:1000B00004081020408001020408102001020408F6
:1000C0001020090811241FBECFEFD8E0DEBFCDBF3E
:1000D00011E0A0E0B1E0ECE8F3E102C005900D9280
:1000E000A83FB107D9F722E0A8EFB1E001C01D9207
:1000F000A03BB207E1F710E0C2E6D0E004C02197D0
:10010000FE010E94BE09C136D107C9F70E942F0522
:100110000C94C4090C940000AF92BF92CF92DF926E
:10012000EF92FF920F931F93CF93DF936C017B01AC
:100130008B01040F151FEB015E01AE18BF08C0173D
:10014000D10759F06991D601ED91FC910190F081B0
:10015000E02DC6010995892B79F7C501DF91CF9173
:100160001F910F91FF90EF90DF90CF90BF90AF90D5
:100170000895FC01538D448D252F30E0842F90E0AD
:10018000821B930B541710F0CF9608950197089592
:10019000FC01918D828D981761F0A28DAE0FBF2F5B
:1001A000B11D5D968C91928D9F5F9F73928F90E0B1
:1001B00008958FEF9FEF0895FC01918D828D981720
:1001C00031F0828DE80FF11D858D90E008958FEF5D
:1001D0009FEF0895FC01918D228D892F90E0805C26
:1001E0009F4F821B91098F739927089583E192E0B5
:1001F0000E94EA0021E0892B09F420E0822F089573
:1002000080E090E0892B29F00E94F60081110C9487
:1002100000000895FC01A48DA80FB92FB11DA35AA9
:10022000BF4F2C91848D90E001968F739927848F16
:10023000A689B7892C93A089B1898C918370806439
:100240008C93938D848D981306C00288F389E02DDA
:1002500080818F7D80830895EF92FF920F931F938B
:10026000CF93DF93EC0181E0888F9B8D8C8D981369
:100270001AC0E889F989808185FF15C09FB7F89475
:10028000EE89FF896083E889F989808183708064C1
:1002900080839FBF81E090E0DF91CF911F910F910C
:1002A000FF90EF900895F62E0B8D10E00F5F1F4F1B
:1002B0000F731127E02E8C8D8E110CC00FB607FC2A
:1002C000FACFE889F989808185FFF5CFCE010E94B8
:1002D0000A01F1CFEB8DEC0FFD2FF11DE35AFF4F1B
:1002E000F0829FB7F8940B8FEA89FB898081806246
:1002F000CFCFCF93DF93EC01888D8823B9F0AA8903
:10030000BB89E889F9898C9185FD03C0808186FDD0
:100310000DC00FB607FCF7CF8C9185FFF2CF80811F
:1003200085FFEDCFCE010E940A01E9CFDF91CF9189
:100330000895833081F028F4813099F08230A9F05B
:1003400008958730A9F08830C9F08430B1F48091E5
:1003500080008F7D03C0809180008F778093800024
:10036000089584B58F7784BD089584B58F7DFBCFC4
:100370008091B0008F778093B00008958091B00095
:100380008F7DF9CFCF93DF93282F30E0F901E45828
:10039000FF4F8491F901E255FF4FD491F901E656E0
:1003A000FF4FC491CC23A1F081110E949901EC2F41
:1003B000F0E0EE0FFF1FE057FF4FA591B491EC91D5
:1003C000ED2381E090E009F480E0DF91CF91089582
:1003D00080E090E0FACF1F93CF93DF93282F30E097
:1003E000F901E458FF4F8491F901E255FF4FD49190
:1003F000F901E656FF4FC491CC23A9F0162F8111C5
:100400000E949901EC2FF0E0EE0FFF1FEE58FF4F16
:10041000A591B4918FB7F894EC91111108C0D095C3
:10042000DE23DC938FBFDF91CF911F910895DE2BE8
:10043000F8CFCF93DF9390E0FC01E255FF4F24917A
:1004400086569F4FFC0184918823D1F090E0880F5D
:10045000991FFC01E859FF4FA591B491FC01EE589A
:10046000FF4FC591D49161110EC09FB7F8948C9144
:10047000E22FE0958E238C932881E223E8839FBFAF
:10048000DF91CF9108958FB7F894EC91E22BEC9324
:100490008FBFF6CF1F93CF93DF93182FEB0161E04F
:1004A0000E941902209739F460E0812FDF91CF91EB
:1004B0001F910C94EB01CF3FD10511F461E0F5CF12
:1004C000E12FF0E0E458FF4FE491E33031F140F4E4
:1004D000E130B1F0E230E1F0C038D1057CF7E4CF93
:1004E000E73029F1E83059F1E430B1F7809180002C
:1004F000806280938000D0938B00C0938A0004C0F8
:1005000084B5806884BDC7BDDF91CF911F910895E8
:1005100084B5806284BDC8BDF7CF809180008068BB
:1005200080938000D0938900C0938800EDCF8091A4
:10053000B00080688093B000C093B300E5CF809195
:10054000B00080628093B000C093B400DDCF8E30E5
:1005500008F08E508770806480937C0080917A00D0
:10056000806480937A0080917A0086FDFCCF809130
:1005700078009091790008953FB7F8948091FD013B
:100580009091FE01A091FF01B091000226B5A89BB9
:1005900005C02F3F19F00196A11DB11D3FBFBA2F15
:1005A000A92F982F8827BC01CD01620F711D811DD5
:1005B000911D42E0660F771F881F991F4A95D1F75A
:1005C00008958F929F92AF92BF92CF92DF92EF9257
:1005D000FF924B015C010E94BC026B017C010E94F6
:1005E000BC026C197D098E099F09683E7340810524
:1005F0009105A8F321E0821A9108A108B10888EEBC
:10060000C80E83E0D81EE11CF11C81149104A104E2
:10061000B10429F7FF90EF90DF90CF90BF90AF909B
:100620009F908F900895089580910B0290910C02F5
:1006300081309105A1F48091010290910202A09174
:100640000302B09104020196A11DB11D8093010225
:1006500090930202A0930302B09304020895892BA1
:10066000E9F78091010290910202A0910302B091FA
:1006700004020197A109B109E9CF80910D0290917F
:100680000E0281309105A1F480910502909106023D
:10069000A0910702B09108020196A11DB11D80939F
:1006A000050290930602A0930702B09308020895F2
:1006B000892BE9F78091050290910602A09107022B
:1006C000B09108020197A109B109E9CFFC0101909D
:1006D0000020E9F73197AF01481B590BBC0183E1BA
:1006E00092E00C948C008F929F92AF92BF920F93E6
:1006F0001F93CF93DF93CDB7DEB7A1970FB6F894D2
:10070000DEBF0FBECDBF19A2423008F44AE08E0111
:100710000F5D1F4F842E912CB12CA12CA5019401AB
:100720000E945508E62FB901CA01EA30F4F4E05DF1
:10073000D801EE938D01232B242B252B79F790E004
:1007400080E0109719F0CD010E946603A1960FB6C4
:10075000F894DEBF0FBECDBFDF91CF911F910F91F7
:10076000BF90AF909F908F900895E95CE1CFCF92BA
:10077000DF92EF92FF92CF93DF936B017C016DE2EA
:1007800083E192E00E942C01EC0166277727CB01E0
:100790006C197D098E099F094AE00E9473038C0F32
:1007A0009D1FDF91CF91FF90EF90DF90CF90089544
:1007B000CF93DF930E946603EC0186E191E00E94F3
:1007C00066038C0F9D1FDF91CF910895CF93DF9328
:1007D00097FF0CC00E94B703EC0186E191E00E94F4
:1007E00066038C0F9D1FDF91CF9108954AE00E9410
:1007F0007303F2CF1F920F920FB60F9211242F9313
:100800003F934F935F936F937F938F939F93AF9398
:10081000BF93EF93FF9383E192E00E940A01FF915F
:10082000EF91BF91AF919F918F917F916F915F9168
:100830004F913F912F910F900FBE0F901F901895E1
:100840001F920F920FB60F9211242F938F939F93A5
:10085000EF93FF93E0912302F09124028081E091D5
:100860002902F0912A0282FD1BC0908180912C0206
:100870008F5F8F7320912D02821741F0E0912C023F
:10088000F0E0ED5EFD4F958F80932C02FF91EF918C
:100890009F918F912F910F900FBE0F901F901895E1
:1008A0008081F4CF1F920F920FB60F9211242F93D5
:1008B0003F938F939F93AF93BF938091F901909152
:1008C000FA01A091FB01B091FC013091F80123E005
:1008D000230F2D3758F50196A11DB11D2093F80166
:1008E0008093F9019093FA01A093FB01B093FC016E
:1008F0008091FD019091FE01A091FF01B091000255
:100900000196A11DB11D8093FD019093FE01A0935E
:10091000FF01B0930002BF91AF919F918F913F91E2
:100920002F910F900FBE0F901F90189526E8230F60
:100930000296A11DB11DD2CF1F920F920FB60F923A
:1009400011242F933F934F935F936F937F938F93D4
:100950009F93AF93BF93EF93FF93E0910201F091C8
:1009600003010995FF91EF91BF91AF919F918F91F5
:100970007F916F915F914F913F912F910F900FBE9B
:100980000F901F9018951F920F920FB60F9211247F
:100990002F933F934F935F936F937F938F939F9387
:1009A000AF93BF93EF93FF93E0910001F0910101AA
:1009B0000995FF91EF91BF91AF919F918F917F9199
:1009C0006F915F914F913F912F910F900FBE0F90BC
:1009D0001F901895CF92DF92EF92FF920F931F9383
:1009E000E82FF92F05C0015011092109310961F1E2
:1009F000908196239417B9F305C00150110921097C
:100A0000310911F1908196239413F7CFC12CD12C89
:100A1000E12CF12C0AC08FEFC81AD80AE80AF80AAC
:100A20000C151D052E053F0579F08081862384175E
:100A300091F36C2D7D2D8E2D9F2D1F910F91FF9089
:100A4000EF90DF90CF90089560E070E080E090E05C
:100A50001F910F91FF90EF90DF90CF9008957894C1
:100A600084B5826084BD84B5816084BD85B58260B3
:100A700085BD85B5816085BD80916E008160809364
:100A80006E001092810080918100826080938100CD
:100A900080918100816080938100809180008160DD
:100AA000809380008091B10084608093B100809138
:100AB000B00081608093B00080917A008460809360
:100AC0007A0080917A00826080937A0080917A0027
:100AD000816080937A0080917A00806880937A00A8
:100AE0001092C100E0912302F091240282E0808301
:100AF000E0911F02F09120021082E0912102F0911A
:100B000022028FEC808310922B02E0912702F09159
:100B1000280286E08083E0912502F0912602808100
:100B200080618083E0912502F091260280818860B7
:100B30008083E0912502F091260280818068808385
:100B4000E0912502F091260280818F7D808361E013
:100B50008BE00E94190261E08AE00E94190261E0C4
:100B60008CE00E9419028DE393E090930101809341
:100B70000001809169008C7F816080936900E89A10
:100B800061E089E00E94190261E088E00E94190298
:100B900061E087E00E94190284E193E090930301F1
:100BA0008093020180916900837F84608093690053
:100BB000E99A61E086E00E94190260E085E00E9407
:100BC000190260E08EE00E94190260E08FE00E944E
:100BD000190260E080E10E94190260E081E10E9458
:100BE00019029FE2492E512C612C712C20E0222EFB
:100BF00020E0322E82E10E94A7022FEF30E0DC01DC
:100C00000E94B7092FEF33E040E050E00E94360821
:100C10004901309312022093110283E10E94A7023E
:100C20002FEF30E0DC010E94B7092FEF33E040E006
:100C300050E00E94360869013093100220930F02A1
:100C40008EE00E94C201892B09F0DAC08FE00E9479
:100C5000C201892B09F0D4C081E10E94C201892B15
:100C600009F0CEC080E10E94C201892B09F0C8C002
:100C700060E08BE00E94EB0160E08AE00E94EB0103
:100C800060E089E00E94EB0160E088E00E94EB01F7
:100C900070E060E08CE00E944A0270E060E087E073
:100CA0000E944A0289E191E00E94D80368EE73E055
:100CB00080E090E00E94E10260E086E00E94EB01AB
:100CC00083E090E00197F1F761E086E00E94EB019C
:100CD00083E290E00197F1F760E086E00E94EB018B
:100CE000E3EBF0E06491EFE9F0E08491E82FF0E0CD
:100CF000EE0FFF1FE057FF4F8591949100E412E43F
:100D00002FE030E0462F0E94EA046115710581054D
:100D1000910529F06F5F7F4F8F4F9F4F9F700E940B
:100D2000BE0826E933E44BE05DE30E94220920E09F
:100D300030E040E05FE30E9422090E948608709341
:100D40000A026093090281E991E00E9466036091C2
:100D5000090270910A02072E000C880B990B97FF6D
:100D60004FC10E94B70386E191E00E946603809123
:100D7000090290910A024F970CF046C161E08DE0A4
:100D80000E94EB0183EA91E00E94D80384EC91E099
:100D90000E9466036091050270910602809107022D
:100DA00090910802A30192010E943608CA01B9017C
:100DB0000E94E6038EED91E00E94660360910102BD
:100DC000709102028091030290910402A3019201AA
:100DD0000E943608CA01B9010E94E60368EC70E07F
:100DE00080E090E00E94E1022114310409F402CF76
:100DF0000E94F600882309F4FDCE0E940000FACE7E
:100E00008EE00E94C201EC01019729F18EE00E9460
:100E1000C201892B09F451C08EE00E94C201892BC6
:100E200009F480C08EE00E94C201892B09F4B1C090
:100E300060E08BE00E94EB0160E08AE00E94EB0141
:100E400060E089E00E94EB0160E088E00E94EB0135
:100E50008EE591E029CF8FE00E94C201892BB1F687
:100E600081E10E94C201892B89F680E10E94C201C2
:100E7000892B61F661E08BE00E94EB0160E08AE083
:100E80000E94EB01D0930E02C0930D0261E089E055
:100E90000E94EB0160E088E00E94EB01D0930C021D
:100EA000C0930B02B4018CE00E944A02B60187E0B5
:100EB0000E944A028DE291E0F7CE8FE00E94C201CB
:100EC000019709F0A9CF81E10E94C201892B09F0A5
:100ED000A3CF80E10E94C201892B09F09DCF60E081
:100EE0008BE00E94EB0161E08AE00E94EB0110922E
:100EF0000E0210920D0260E089E00E94EB0161E0B9
:100F000088E00E94EB0110920C0210920B02B401D7
:100F10008CE00E944A02B60187E00E944A0285E402
:100F200091E0C2CE8FE00E94C201892B09F07ACFF6
:100F300081E10E94C201EC01019709F073CF80E1C9
:100F40000E94C201892B09F06DCF61E08BE00E9405
:100F5000EB0160E08AE00E94EB01D0930E02C093A7
:100F60000D0260E089E00E94EB0160E088E00E94F1
:100F7000EB0110920C0210920B02B4018CE00E9463
:100F80004A0270E060E087E00E944A0286E691E053
:100F90008BCE8FE00E94C201892B09F049CF81E1FD
:100FA0000E94C201892B09F043CF80E10E94C20157
:100FB000EC01019709F03CCF60E08BE00E94EB016F
:100FC00060E08AE00E94EB0110920E0210920D0286
:100FD00061E089E00E94EB0160E088E00E94EB01A3
:100FE000D0930C02C0930B0270E060E08CE00E9492
:100FF0004A02B60187E00E944A028BE791E054CE94
:101000004AE00E947303AFCE60E08DE00E94EB01E6
:10101000BDCEE3E1F2E01382128288EE93E0A0E01D
:10102000B0E084839583A683B78388E091E09183C1
:10103000808385EC90E09587848784EC90E09787A7
:10104000868780EC90E0918B808B81EC90E0938B95
:10105000828B82EC90E0958B848B86EC90E0978B72
:10106000868B118E128E138E148E0895052E97FB8B
:101070001EF400940E944D0857FD07D00E945508A9
:1010800007FC03D04EF40C944D08509540953095D4
:1010900021953F4F4F4F5F4F0895909580957095E4
:1010A00061957F4F8F4F9F4F0895A1E21A2EAA1B83
:1010B000BB1BFD010DC0AA1FBB1FEE1FFF1FA21708
:1010C000B307E407F50720F0A21BB30BE40BF50B05
:1010D000661F771F881F991F1A9469F7609570958E
:1010E000809590959B01AC01BD01CF010895A29F11
:1010F000B001B39FC001A39F700D811D1124911DEC
:10110000B29F700D811D1124911D08950E948D08BC
:101110006894B1110C941C0908950E94010988F08B
:101120009F5798F0B92F9927B751B0F0E1F0660FAB
:10113000771F881F991F1AF0BA95C9F714C0B130EC
:1011400091F00E941B09B1E008950C941B09672FD0
:10115000782F8827B85F39F0B93FCCF3869577951B
:101160006795B395D9F73EF4909580957095619504
:101170007F4F8F4F9F4F0895E89409C097FB3EF42F
:1011800090958095709561957F4F8F4F9F4F9923D4
:10119000A9F0F92F96E9BB279395F6958795779552
:1011A0006795B795F111F8CFFAF4BB0F11F460FF12
:1011B0001BC06F5F7F4F8F4F9F4F16C0882311F06A
:1011C00096E911C0772321F09EE8872F762F05C07E
:1011D000662371F096E8862F70E060E02AF09A9519
:1011E000660F771F881FDAF7880F9695879597F90E
:1011F000089557FD9058440F551F59F05F3F71F007
:101200004795880F97FB991F61F09F3F79F087956D
:101210000895121613061406551FF2CF4695F1DFF6
:1012200008C0161617061806991FF1CF8695710586
:10123000610508940895E894BB2766277727CB01BA
:1012400097F908950E9435090C94A6090E949809FF
:1012500038F00E949F0920F0952311F00C948F091B
:101260000C94950911240C941C090E94F90870F340
:10127000959FC1F3950F50E0551F629FF001729F3B
:10128000BB27F00DB11D639FAA27F00DB11DAA1F4A
:10129000649F6627B00DA11D661F829F2227B00D97
:1012A000A11D621F739FB00DA11D621F839FA00D22
:1012B000611D221F749F3327A00D611D231F849F72
:1012C000600D211D822F762F6A2F11249F575040C9
:1012D0009AF0F1F088234AF0EE0FFF1FBB1F661F44
:1012E000771F881F91505040A9F79E3F510580F00D
:1012F0000C948F090C941C095F3FE4F3983ED4F3DF
:10130000869577956795B795F795E7959F5FC1F7B0
:10131000FE2B880F911D9695879597F9089597F95B
:101320009F6780E870E060E008959FEF80EC08958B
:1013300000240A94161617061806090608950024B4
:101340000A9412161306140605060895092E03942E
:10135000000C11F4882352F0BB0F40F4BF2B11F4A2
:1013600060FF04C06F5F7F4F8F4F9F4F08950E94B3
:101370007708B7FF0895821B930B0895EE0FFF1FA8
:0C1380000590F491E02D0994F894FFCF43
:10138C0013031303000000002C018C00B900790139
:10139C00EA00C800DC000D0A0074686520526F6218
:1013AC006F74206E6F74206D6F76652000746865A5
:1013BC0020526F626F74206D6F766520464F5257C6
:1013CC00415244200074686520526F626F74206D26
:1013DC006F7665204241434B5741524420004552A1
:1013EC004F522121210074686520526F626F742066
:1013FC006D6F7665204C454654200074686520520C
:10140C006F626F74206D6F76652052494748542087
:10141C000064697374616E636520696E20636D206E
:10142C003D20005741524E494E47212120546865BA
:10143C0020626F6479206973207665727920636C01
:10144C006F7365004E756D626572206F66204D4F2F
:10145C00544F525F31207475726E733D20004E757F
:10146C006D626572206F66204D4F544F525F322073
:08147C007475726E733D0000EF
:00000001FF
